{
  "contractName": "ERC20",
  "abi": [
    {
      "anonymous": false,
      "inputs": [
        {
          "indexed": true,
          "internalType": "address",
          "name": "owner",
          "type": "address"
        },
        {
          "indexed": true,
          "internalType": "address",
          "name": "spender",
          "type": "address"
        },
        {
          "indexed": false,
          "internalType": "uint256",
          "name": "value",
          "type": "uint256"
        }
      ],
      "name": "Approval",
      "type": "event"
    },
    {
      "anonymous": false,
      "inputs": [
        {
          "indexed": true,
          "internalType": "address",
          "name": "from",
          "type": "address"
        },
        {
          "indexed": true,
          "internalType": "address",
          "name": "to",
          "type": "address"
        },
        {
          "indexed": false,
          "internalType": "uint256",
          "name": "value",
          "type": "uint256"
        }
      ],
      "name": "Transfer",
      "type": "event"
    },
    {
      "constant": true,
      "inputs": [],
      "name": "totalSupply",
      "outputs": [
        {
          "internalType": "uint256",
          "name": "",
          "type": "uint256"
        }
      ],
      "payable": false,
      "stateMutability": "view",
      "type": "function"
    },
    {
      "constant": true,
      "inputs": [
        {
          "internalType": "address",
          "name": "account",
          "type": "address"
        }
      ],
      "name": "balanceOf",
      "outputs": [
        {
          "internalType": "uint256",
          "name": "",
          "type": "uint256"
        }
      ],
      "payable": false,
      "stateMutability": "view",
      "type": "function"
    },
    {
      "constant": false,
      "inputs": [
        {
          "internalType": "address",
          "name": "recipient",
          "type": "address"
        },
        {
          "internalType": "uint256",
          "name": "amount",
          "type": "uint256"
        }
      ],
      "name": "transfer",
      "outputs": [
        {
          "internalType": "bool",
          "name": "",
          "type": "bool"
        }
      ],
      "payable": false,
      "stateMutability": "nonpayable",
      "type": "function"
    },
    {
      "constant": true,
      "inputs": [
        {
          "internalType": "address",
          "name": "owner",
          "type": "address"
        },
        {
          "internalType": "address",
          "name": "spender",
          "type": "address"
        }
      ],
      "name": "allowance",
      "outputs": [
        {
          "internalType": "uint256",
          "name": "",
          "type": "uint256"
        }
      ],
      "payable": false,
      "stateMutability": "view",
      "type": "function"
    },
    {
      "constant": false,
      "inputs": [
        {
          "internalType": "address",
          "name": "spender",
          "type": "address"
        },
        {
          "internalType": "uint256",
          "name": "amount",
          "type": "uint256"
        }
      ],
      "name": "approve",
      "outputs": [
        {
          "internalType": "bool",
          "name": "",
          "type": "bool"
        }
      ],
      "payable": false,
      "stateMutability": "nonpayable",
      "type": "function"
    },
    {
      "constant": false,
      "inputs": [
        {
          "internalType": "address",
          "name": "sender",
          "type": "address"
        },
        {
          "internalType": "address",
          "name": "recipient",
          "type": "address"
        },
        {
          "internalType": "uint256",
          "name": "amount",
          "type": "uint256"
        }
      ],
      "name": "transferFrom",
      "outputs": [
        {
          "internalType": "bool",
          "name": "",
          "type": "bool"
        }
      ],
      "payable": false,
      "stateMutability": "nonpayable",
      "type": "function"
    },
    {
      "constant": false,
      "inputs": [
        {
          "internalType": "address",
          "name": "account",
          "type": "address"
        },
        {
          "internalType": "uint256",
          "name": "amount",
          "type": "uint256"
        }
      ],
      "name": "_mint",
      "outputs": [],
      "payable": false,
      "stateMutability": "nonpayable",
      "type": "function"
    }
  ],
  "bytecode": "0x6080604052610708806100136000396000f3fe608060405234801561001057600080fd5b506004361061006d5760003560e01c8063095ea7b31461007257806318160ddd146100b257806323b872dd146100cc5780634e6ec2471461010257806370a0823114610130578063a9059cbb14610156578063dd62ed3e14610182575b600080fd5b61009e6004803603604081101561008857600080fd5b506001600160a01b0381351690602001356101b0565b604080519115158252519081900360200190f35b6100ba6101ce565b60408051918252519081900360200190f35b61009e600480360360608110156100e257600080fd5b506001600160a01b038135811691602081013590911690604001356101d4565b61012e6004803603604081101561011857600080fd5b506001600160a01b038135169060200135610249565b005b6100ba6004803603602081101561014657600080fd5b50356001600160a01b0316610327565b61009e6004803603604081101561016c57600080fd5b506001600160a01b038135169060200135610342565b6100ba6004803603604081101561019857600080fd5b506001600160a01b0381358116916020013516610356565b60006101c46101bd610381565b8484610385565b5060015b92915050565b60025490565b60006101e184848461049d565b61023f846101ed610381565b6001600160a01b038716600090815260016020526040812061023a91879190610214610381565b6001600160a01b031681526020810191909152604001600020549063ffffffff6105cd16565b610385565b5060019392505050565b6001600160a01b0382166102a4576040805162461bcd60e51b815260206004820152601f60248201527f45524332303a206d696e7420746f20746865207a65726f206164647265737300604482015290519081900360640190fd5b6002546102b7908263ffffffff61061c16565b6002556001600160a01b0382166000908152602081905260409020546102e3908263ffffffff61061c16565b6001600160a01b03831660008181526020818152604080832094909455835185815293519293919260008051602061068f8339815191529281900390910190a35050565b6001600160a01b031660009081526020819052604090205490565b60006101c461034f610381565b848461049d565b6001600160a01b03918216600090815260016020908152604080832093909416825291909152205490565b3390565b6001600160a01b0383166103e0576040805162461bcd60e51b815260206004820181905260248201527f45524332303a20617070726f76652066726f6d207a65726f2061646472657373604482015290519081900360640190fd5b6001600160a01b03821661043b576040805162461bcd60e51b815260206004820152601e60248201527f45524332303a20617070726f766520746f207a65726f20616464726573730000604482015290519081900360640190fd5b6001600160a01b03808416600081815260016020908152604080832094871680845294825291829020859055815185815291517f8c5be1e5ebec7d5bd14f71427d1e84f3dd0314c0f7b2291e5b200ac8c7c3b9259281900390910190a3505050565b6001600160a01b0383166104e25760405162461bcd60e51b81526004018080602001828103825260258152602001806106af6025913960400191505060405180910390fd5b6001600160a01b0382166105275760405162461bcd60e51b815260040180806020018281038252602381526020018061066c6023913960400191505060405180910390fd5b6001600160a01b038316600090815260208190526040902054610550908263ffffffff6105cd16565b6001600160a01b038085166000908152602081905260408082209390935590841681522054610585908263ffffffff61061c16565b6001600160a01b0380841660008181526020818152604091829020949094558051858152905191939287169260008051602061068f83398151915292918290030190a3505050565b808203828111156101c8576040805162461bcd60e51b815260206004820152601460248201527364732d6d6174682d7375622d6f766572666c6f7760601b604482015290519081900360640190fd5b808201828110156101c8576040805162461bcd60e51b815260206004820152601460248201527364732d6d6174682d6164642d6f766572666c6f7760601b604482015290519081900360640190fdfe45524332303a207472616e7366657220746f20746865207a65726f2061646472657373ddf252ad1be2c89b69c2b068fc378daa952ba7f163c4a11628f55a4df523b3ef45524332303a207472616e736665722066726f6d20746865207a65726f2061646472657373a265627a7a72315820e1b23b54ef44333dd762b0aac0f8c54e395482513f43f88845355773e3bb300464736f6c63430005100032",
  "source": "//SPDX-License-Identifier: UNLICENSED\r\n\r\npragma solidity ^0.5.16;\r\n\r\nimport \"./interfaces/IERC20.sol\";\r\nimport \"./interfaces/libraries/SafeMath.sol\";\r\nimport \"./interfaces/libraries/Context.sol\";\r\n\r\ncontract ERC20 is Context, IERC20 {\r\n  using SafeMath for uint256;\r\n\r\n  mapping(address => uint256) private _balances;\r\n  mapping(address => mapping(address => uint256)) private _allowances;\r\n\r\n  uint256 private _totalSupply;\r\n\r\n  function totalSupply() public view returns (uint256) {\r\n    return _totalSupply;\r\n  }\r\n\r\n  function balanceOf(address account) public view returns (uint256){\r\n    return _balances[account];\r\n  }\r\n\r\nfunction _transfer(address sender, address recipient, uint256 amount) internal {\r\n  require(sender != address(0), \"ERC20: transfer from the zero address\");\r\n  require(recipient != address(0), \"ERC20: transfer to the zero address\");\r\n\r\n  _balances[sender] = _balances[sender].sub(amount);\r\n  _balances[recipient] = _balances[recipient].add(amount);\r\n  emit Transfer(sender, recipient, amount);\r\n}\r\n\r\nfunction transfer(address recipient, uint256 amount) public returns(bool) {\r\n  _transfer(_msgSender(), recipient, amount);\r\n  return true;\r\n}\r\n\r\nfunction allowance(address owner, address spender) public view returns (uint256) {\r\n  return _allowances[owner][spender];\r\n}\r\n\r\nfunction _approve(address owner, address spender, uint256 amount) internal {\r\n  require(owner != address(0), \"ERC20: approve from zero address\");\r\n  require(spender != address(0), \"ERC20: approve to zero address\");\r\n  _allowances[owner][spender] = amount;\r\n  emit Approval(owner, spender, amount);\r\n}\r\n\r\nfunction approve(address spender, uint256 amount) public returns(bool) {\r\n  _approve(_msgSender(), spender, amount);\r\n  return true;\r\n}\r\n\r\nfunction transferFrom(address sender, address recipient, uint256 amount) public returns(bool) {\r\n  _transfer(sender, recipient, amount);\r\n  _approve(sender, _msgSender(), _allowances[sender][_msgSender()].sub(amount));\r\n  return true;\r\n}\r\n\r\nfunction _mint(address account, uint256 amount) public {\r\n  require(account != address(0), \"ERC20: mint to the zero address\");\r\n  _totalSupply = _totalSupply.add(amount);\r\n  _balances[account] = _balances[account].add(amount);\r\n  emit Transfer(address(0), account, amount);\r\n}\r\n\r\nfunction _burn(address account, uint256 amount) internal {\r\n  require(account != address(0), \"ERC20: burn from the zero address\");\r\n\r\n  _balances[account] = _balances[account].sub(amount);\r\n  _totalSupply = _totalSupply.sub(amount);\r\n  emit Transfer(account, address(0), amount);\r\n}\r\n\r\n}",
  "sourcePath": "C:/Users/Alexey/Desktop/calcscout/Trainings/Ethereum/dev/erc-20-token/contracts/ERC20.sol",
  "compiler": {
    "name": "solc",
    "version": "0.5.16+commit.9c3226ce.Emscripten.clang"
  },
  "schemaVersion": "3.3.4",
  "updatedAt": "2021-03-03T22:04:07.315Z",
  "devdoc": {
    "methods": {}
  },
  "userdoc": {
    "methods": {}
  }
}