{
  "contractName": "ERC20Mintable",
  "abi": [
    {
      "anonymous": false,
      "inputs": [
        {
          "indexed": true,
          "internalType": "address",
          "name": "owner",
          "type": "address"
        },
        {
          "indexed": true,
          "internalType": "address",
          "name": "spender",
          "type": "address"
        },
        {
          "indexed": false,
          "internalType": "uint256",
          "name": "value",
          "type": "uint256"
        }
      ],
      "name": "Approval",
      "type": "event"
    },
    {
      "anonymous": false,
      "inputs": [
        {
          "indexed": true,
          "internalType": "address",
          "name": "account",
          "type": "address"
        }
      ],
      "name": "MinterAdded",
      "type": "event"
    },
    {
      "anonymous": false,
      "inputs": [
        {
          "indexed": true,
          "internalType": "address",
          "name": "account",
          "type": "address"
        }
      ],
      "name": "MinterRemoved",
      "type": "event"
    },
    {
      "anonymous": false,
      "inputs": [
        {
          "indexed": true,
          "internalType": "address",
          "name": "from",
          "type": "address"
        },
        {
          "indexed": true,
          "internalType": "address",
          "name": "to",
          "type": "address"
        },
        {
          "indexed": false,
          "internalType": "uint256",
          "name": "value",
          "type": "uint256"
        }
      ],
      "name": "Transfer",
      "type": "event"
    },
    {
      "constant": false,
      "inputs": [
        {
          "internalType": "address",
          "name": "account",
          "type": "address"
        },
        {
          "internalType": "uint256",
          "name": "amount",
          "type": "uint256"
        }
      ],
      "name": "_mint",
      "outputs": [],
      "payable": false,
      "stateMutability": "nonpayable",
      "type": "function"
    },
    {
      "constant": true,
      "inputs": [
        {
          "internalType": "address",
          "name": "owner",
          "type": "address"
        },
        {
          "internalType": "address",
          "name": "spender",
          "type": "address"
        }
      ],
      "name": "allowance",
      "outputs": [
        {
          "internalType": "uint256",
          "name": "",
          "type": "uint256"
        }
      ],
      "payable": false,
      "stateMutability": "view",
      "type": "function"
    },
    {
      "constant": false,
      "inputs": [
        {
          "internalType": "address",
          "name": "spender",
          "type": "address"
        },
        {
          "internalType": "uint256",
          "name": "amount",
          "type": "uint256"
        }
      ],
      "name": "approve",
      "outputs": [
        {
          "internalType": "bool",
          "name": "",
          "type": "bool"
        }
      ],
      "payable": false,
      "stateMutability": "nonpayable",
      "type": "function"
    },
    {
      "constant": true,
      "inputs": [
        {
          "internalType": "address",
          "name": "account",
          "type": "address"
        }
      ],
      "name": "balanceOf",
      "outputs": [
        {
          "internalType": "uint256",
          "name": "",
          "type": "uint256"
        }
      ],
      "payable": false,
      "stateMutability": "view",
      "type": "function"
    },
    {
      "constant": true,
      "inputs": [
        {
          "internalType": "address",
          "name": "account",
          "type": "address"
        }
      ],
      "name": "isMinter",
      "outputs": [
        {
          "internalType": "bool",
          "name": "",
          "type": "bool"
        }
      ],
      "payable": false,
      "stateMutability": "view",
      "type": "function"
    },
    {
      "constant": true,
      "inputs": [],
      "name": "totalSupply",
      "outputs": [
        {
          "internalType": "uint256",
          "name": "",
          "type": "uint256"
        }
      ],
      "payable": false,
      "stateMutability": "view",
      "type": "function"
    },
    {
      "constant": false,
      "inputs": [
        {
          "internalType": "address",
          "name": "recipient",
          "type": "address"
        },
        {
          "internalType": "uint256",
          "name": "amount",
          "type": "uint256"
        }
      ],
      "name": "transfer",
      "outputs": [
        {
          "internalType": "bool",
          "name": "",
          "type": "bool"
        }
      ],
      "payable": false,
      "stateMutability": "nonpayable",
      "type": "function"
    },
    {
      "constant": false,
      "inputs": [
        {
          "internalType": "address",
          "name": "sender",
          "type": "address"
        },
        {
          "internalType": "address",
          "name": "recipient",
          "type": "address"
        },
        {
          "internalType": "uint256",
          "name": "amount",
          "type": "uint256"
        }
      ],
      "name": "transferFrom",
      "outputs": [
        {
          "internalType": "bool",
          "name": "",
          "type": "bool"
        }
      ],
      "payable": false,
      "stateMutability": "nonpayable",
      "type": "function"
    },
    {
      "constant": false,
      "inputs": [
        {
          "internalType": "address",
          "name": "account",
          "type": "address"
        },
        {
          "internalType": "uint256",
          "name": "amount",
          "type": "uint256"
        }
      ],
      "name": "mint",
      "outputs": [
        {
          "internalType": "bool",
          "name": "",
          "type": "bool"
        }
      ],
      "payable": false,
      "stateMutability": "nonpayable",
      "type": "function"
    }
  ],
  "bytecode": "0x60806040526100266100186001600160e01b0361002b16565b6001600160e01b0361002f16565b61016f565b3390565b61004781600361007e60201b6107a01790919060201c565b6040516001600160a01b038216907f6ae172837ea30b801fbfcdd4108aa1d5bf8ff775444fd70256b44e6bf3dfc3f690600090a250565b61009182826001600160e01b0361010816565b156100e3576040805162461bcd60e51b815260206004820152601f60248201527f526f6c65733a206163636f756e7420616c72656164792068617320726f6c6500604482015290519081900360640190fd5b6001600160a01b0316600090815260209190915260409020805460ff19166001179055565b60006001600160a01b03821661014f5760405162461bcd60e51b8152600401808060200182810382526022815260200180610a896022913960400191505060405180910390fd5b506001600160a01b03166000908152602091909152604090205460ff1690565b61090b8061017e6000396000f3fe608060405234801561001057600080fd5b50600436106100835760003560e01c8063095ea7b31461008857806318160ddd146100c857806323b872dd146100e257806340c10f19146101185780634e6ec2471461014457806370a0823114610172578063a9059cbb14610198578063aa271e1a146101c4578063dd62ed3e146101ea575b600080fd5b6100b46004803603604081101561009e57600080fd5b506001600160a01b038135169060200135610218565b604080519115158252519081900360200190f35b6100d0610236565b60408051918252519081900360200190f35b6100b4600480360360608110156100f857600080fd5b506001600160a01b0381358116916020810135909116906040013561023c565b6100b46004803603604081101561012e57600080fd5b506001600160a01b0381351690602001356102b1565b6101706004803603604081101561015a57600080fd5b506001600160a01b038135169060200135610304565b005b6100d06004803603602081101561018857600080fd5b50356001600160a01b03166103e2565b6100b4600480360360408110156101ae57600080fd5b506001600160a01b0381351690602001356103fd565b6100b4600480360360208110156101da57600080fd5b50356001600160a01b0316610411565b6100d06004803603604081101561020057600080fd5b506001600160a01b0381358116916020013516610424565b600061022c61022561044f565b8484610453565b5060015b92915050565b60025490565b600061024984848461056b565b6102a78461025561044f565b6001600160a01b03871660009081526001602052604081206102a29187919061027c61044f565b6001600160a01b031681526020810191909152604001600020549063ffffffff61069b16565b610453565b5060019392505050565b60006102c36102be61044f565b610411565b6102fe5760405162461bcd60e51b815260040180806020018281038252602b815260200180610867602b913960400191505060405180910390fd5b61022c83835b6001600160a01b03821661035f576040805162461bcd60e51b815260206004820152601f60248201527f45524332303a206d696e7420746f20746865207a65726f206164647265737300604482015290519081900360640190fd5b600254610372908263ffffffff6106ea16565b6002556001600160a01b03821660009081526020819052604090205461039e908263ffffffff6106ea16565b6001600160a01b0383166000818152602081815260408083209490945583518581529351929391926000805160206108928339815191529281900390910190a35050565b6001600160a01b031660009081526020819052604090205490565b600061022c61040a61044f565b848461056b565b600061023060038363ffffffff61073916565b6001600160a01b03918216600090815260016020908152604080832093909416825291909152205490565b3390565b6001600160a01b0383166104ae576040805162461bcd60e51b815260206004820181905260248201527f45524332303a20617070726f76652066726f6d207a65726f2061646472657373604482015290519081900360640190fd5b6001600160a01b038216610509576040805162461bcd60e51b815260206004820152601e60248201527f45524332303a20617070726f766520746f207a65726f20616464726573730000604482015290519081900360640190fd5b6001600160a01b03808416600081815260016020908152604080832094871680845294825291829020859055815185815291517f8c5be1e5ebec7d5bd14f71427d1e84f3dd0314c0f7b2291e5b200ac8c7c3b9259281900390910190a3505050565b6001600160a01b0383166105b05760405162461bcd60e51b81526004018080602001828103825260258152602001806108b26025913960400191505060405180910390fd5b6001600160a01b0382166105f55760405162461bcd60e51b81526004018080602001828103825260238152602001806108226023913960400191505060405180910390fd5b6001600160a01b03831660009081526020819052604090205461061e908263ffffffff61069b16565b6001600160a01b038085166000908152602081905260408082209390935590841681522054610653908263ffffffff6106ea16565b6001600160a01b0380841660008181526020818152604091829020949094558051858152905191939287169260008051602061089283398151915292918290030190a3505050565b80820382811115610230576040805162461bcd60e51b815260206004820152601460248201527364732d6d6174682d7375622d6f766572666c6f7760601b604482015290519081900360640190fd5b80820182811015610230576040805162461bcd60e51b815260206004820152601460248201527364732d6d6174682d6164642d6f766572666c6f7760601b604482015290519081900360640190fd5b60006001600160a01b0382166107805760405162461bcd60e51b81526004018080602001828103825260228152602001806108456022913960400191505060405180910390fd5b506001600160a01b03166000908152602091909152604090205460ff1690565b6107aa8282610739565b156107fc576040805162461bcd60e51b815260206004820152601f60248201527f526f6c65733a206163636f756e7420616c72656164792068617320726f6c6500604482015290519081900360640190fd5b6001600160a01b0316600090815260209190915260409020805460ff1916600117905556fe45524332303a207472616e7366657220746f20746865207a65726f2061646472657373526f6c65733a206163636f756e7420697320746865207a65726f20616464726573734d696e746572526f6c653a2063616c6c657220646f65736e27742068617665206d696e74657220726f6c65ddf252ad1be2c89b69c2b068fc378daa952ba7f163c4a11628f55a4df523b3ef45524332303a207472616e736665722066726f6d20746865207a65726f2061646472657373a265627a7a72315820b0e7ffd40276f352061469feb15662ad0f739f55d97b00b696355ee0619475d664736f6c63430005100032526f6c65733a206163636f756e7420697320746865207a65726f2061646472657373",
  "source": "//SPDX-License-Identifier: UNLICENSED\r\npragma solidity ^0.5.16;\r\n\r\nimport \"./ERC20.sol\";\r\nimport \"./MinterRole.sol\";\r\n\r\ncontract ERC20Mintable is ERC20, MinterRole {\r\n  function mint(address account, uint256 amount) public onlyMinter returns(bool) {\r\n    _mint(account, amount);\r\n    return true;\r\n  }\r\n}",
  "sourcePath": "C:/Users/Alexey/Desktop/calcscout/Trainings/Ethereum/dev/erc-20-token/contracts/ERC20Mintable.sol",
  "compiler": {
    "name": "solc",
    "version": "0.5.16+commit.9c3226ce.Emscripten.clang"
  },
  "schemaVersion": "3.3.4",
  "updatedAt": "2021-03-03T21:25:27.997Z",
  "devdoc": {
    "methods": {}
  },
  "userdoc": {
    "methods": {}
  }
}