{
  "contractName": "ERC20Burnable",
  "abi": [
    {
      "anonymous": false,
      "inputs": [
        {
          "indexed": true,
          "internalType": "address",
          "name": "owner",
          "type": "address"
        },
        {
          "indexed": true,
          "internalType": "address",
          "name": "spender",
          "type": "address"
        },
        {
          "indexed": false,
          "internalType": "uint256",
          "name": "value",
          "type": "uint256"
        }
      ],
      "name": "Approval",
      "type": "event"
    },
    {
      "anonymous": false,
      "inputs": [
        {
          "indexed": true,
          "internalType": "address",
          "name": "from",
          "type": "address"
        },
        {
          "indexed": true,
          "internalType": "address",
          "name": "to",
          "type": "address"
        },
        {
          "indexed": false,
          "internalType": "uint256",
          "name": "value",
          "type": "uint256"
        }
      ],
      "name": "Transfer",
      "type": "event"
    },
    {
      "constant": false,
      "inputs": [
        {
          "internalType": "address",
          "name": "account",
          "type": "address"
        },
        {
          "internalType": "uint256",
          "name": "amount",
          "type": "uint256"
        }
      ],
      "name": "_mint",
      "outputs": [],
      "payable": false,
      "stateMutability": "nonpayable",
      "type": "function"
    },
    {
      "constant": true,
      "inputs": [
        {
          "internalType": "address",
          "name": "owner",
          "type": "address"
        },
        {
          "internalType": "address",
          "name": "spender",
          "type": "address"
        }
      ],
      "name": "allowance",
      "outputs": [
        {
          "internalType": "uint256",
          "name": "",
          "type": "uint256"
        }
      ],
      "payable": false,
      "stateMutability": "view",
      "type": "function"
    },
    {
      "constant": false,
      "inputs": [
        {
          "internalType": "address",
          "name": "spender",
          "type": "address"
        },
        {
          "internalType": "uint256",
          "name": "amount",
          "type": "uint256"
        }
      ],
      "name": "approve",
      "outputs": [
        {
          "internalType": "bool",
          "name": "",
          "type": "bool"
        }
      ],
      "payable": false,
      "stateMutability": "nonpayable",
      "type": "function"
    },
    {
      "constant": true,
      "inputs": [
        {
          "internalType": "address",
          "name": "account",
          "type": "address"
        }
      ],
      "name": "balanceOf",
      "outputs": [
        {
          "internalType": "uint256",
          "name": "",
          "type": "uint256"
        }
      ],
      "payable": false,
      "stateMutability": "view",
      "type": "function"
    },
    {
      "constant": true,
      "inputs": [],
      "name": "totalSupply",
      "outputs": [
        {
          "internalType": "uint256",
          "name": "",
          "type": "uint256"
        }
      ],
      "payable": false,
      "stateMutability": "view",
      "type": "function"
    },
    {
      "constant": false,
      "inputs": [
        {
          "internalType": "address",
          "name": "recipient",
          "type": "address"
        },
        {
          "internalType": "uint256",
          "name": "amount",
          "type": "uint256"
        }
      ],
      "name": "transfer",
      "outputs": [
        {
          "internalType": "bool",
          "name": "",
          "type": "bool"
        }
      ],
      "payable": false,
      "stateMutability": "nonpayable",
      "type": "function"
    },
    {
      "constant": false,
      "inputs": [
        {
          "internalType": "address",
          "name": "sender",
          "type": "address"
        },
        {
          "internalType": "address",
          "name": "recipient",
          "type": "address"
        },
        {
          "internalType": "uint256",
          "name": "amount",
          "type": "uint256"
        }
      ],
      "name": "transferFrom",
      "outputs": [
        {
          "internalType": "bool",
          "name": "",
          "type": "bool"
        }
      ],
      "payable": false,
      "stateMutability": "nonpayable",
      "type": "function"
    },
    {
      "constant": false,
      "inputs": [
        {
          "internalType": "uint256",
          "name": "amount",
          "type": "uint256"
        }
      ],
      "name": "burn",
      "outputs": [],
      "payable": false,
      "stateMutability": "nonpayable",
      "type": "function"
    }
  ],
  "bytecode": "0x6080604052610835806100136000396000f3fe608060405234801561001057600080fd5b50600436106100785760003560e01c8063095ea7b31461007d57806318160ddd146100bd57806323b872dd146100d757806342966c681461010d5780634e6ec2471461012c57806370a0823114610158578063a9059cbb1461017e578063dd62ed3e146101aa575b600080fd5b6100a96004803603604081101561009357600080fd5b506001600160a01b0381351690602001356101d8565b604080519115158252519081900360200190f35b6100c56101f6565b60408051918252519081900360200190f35b6100a9600480360360608110156100ed57600080fd5b506001600160a01b038135811691602081013590911690604001356101fc565b61012a6004803603602081101561012357600080fd5b5035610271565b005b61012a6004803603604081101561014257600080fd5b506001600160a01b038135169060200135610285565b6100c56004803603602081101561016e57600080fd5b50356001600160a01b0316610363565b6100a96004803603604081101561019457600080fd5b506001600160a01b03813516906020013561037e565b6100c5600480360360408110156101c057600080fd5b506001600160a01b0381358116916020013516610392565b60006101ec6101e56103bd565b84846103c1565b5060015b92915050565b60025490565b60006102098484846104d9565b610267846102156103bd565b6001600160a01b03871660009081526001602052604081206102629187919061023c6103bd565b6001600160a01b031681526020810191909152604001600020549063ffffffff61060916565b6103c1565b5060019392505050565b61028261027c6103bd565b82610658565b50565b6001600160a01b0382166102e0576040805162461bcd60e51b815260206004820152601f60248201527f45524332303a206d696e7420746f20746865207a65726f206164647265737300604482015290519081900360640190fd5b6002546102f3908263ffffffff61072816565b6002556001600160a01b03821660009081526020819052604090205461031f908263ffffffff61072816565b6001600160a01b03831660008181526020818152604080832094909455835185815293519293919260008051602061079b8339815191529281900390910190a35050565b6001600160a01b031660009081526020819052604090205490565b60006101ec61038b6103bd565b84846104d9565b6001600160a01b03918216600090815260016020908152604080832093909416825291909152205490565b3390565b6001600160a01b03831661041c576040805162461bcd60e51b815260206004820181905260248201527f45524332303a20617070726f76652066726f6d207a65726f2061646472657373604482015290519081900360640190fd5b6001600160a01b038216610477576040805162461bcd60e51b815260206004820152601e60248201527f45524332303a20617070726f766520746f207a65726f20616464726573730000604482015290519081900360640190fd5b6001600160a01b03808416600081815260016020908152604080832094871680845294825291829020859055815185815291517f8c5be1e5ebec7d5bd14f71427d1e84f3dd0314c0f7b2291e5b200ac8c7c3b9259281900390910190a3505050565b6001600160a01b03831661051e5760405162461bcd60e51b81526004018080602001828103825260258152602001806107dc6025913960400191505060405180910390fd5b6001600160a01b0382166105635760405162461bcd60e51b81526004018080602001828103825260238152602001806107786023913960400191505060405180910390fd5b6001600160a01b03831660009081526020819052604090205461058c908263ffffffff61060916565b6001600160a01b0380851660009081526020819052604080822093909355908416815220546105c1908263ffffffff61072816565b6001600160a01b0380841660008181526020818152604091829020949094558051858152905191939287169260008051602061079b83398151915292918290030190a3505050565b808203828111156101f0576040805162461bcd60e51b815260206004820152601460248201527364732d6d6174682d7375622d6f766572666c6f7760601b604482015290519081900360640190fd5b6001600160a01b03821661069d5760405162461bcd60e51b81526004018080602001828103825260218152602001806107bb6021913960400191505060405180910390fd5b6001600160a01b0382166000908152602081905260409020546106c6908263ffffffff61060916565b6001600160a01b0383166000908152602081905260409020556002546106f2908263ffffffff61060916565b6002556040805182815290516000916001600160a01b0385169160008051602061079b8339815191529181900360200190a35050565b808201828110156101f0576040805162461bcd60e51b815260206004820152601460248201527364732d6d6174682d6164642d6f766572666c6f7760601b604482015290519081900360640190fdfe45524332303a207472616e7366657220746f20746865207a65726f2061646472657373ddf252ad1be2c89b69c2b068fc378daa952ba7f163c4a11628f55a4df523b3ef45524332303a206275726e2066726f6d20746865207a65726f206164647265737345524332303a207472616e736665722066726f6d20746865207a65726f2061646472657373a265627a7a723158203d3a182d3bc5258d1ceb8da90a476378372f3eb1c668a3e659faf77768075da664736f6c63430005100032",
  "source": "//SPDX-License-Identifier: UNLICENSED\r\npragma solidity ^0.5.16;\r\n\r\nimport \"./ERC20.sol\";\r\nimport \"./interfaces/libraries/Context.sol\";\r\n\r\ncontract ERC20Burnable is Context, ERC20 {\r\n\r\n  function burn(uint256 amount) public {\r\n    _burn(_msgSender(), amount);\r\n  }\r\n\r\n}\r\n",
  "sourcePath": "C:/Users/Alexey/Desktop/calcscout/Trainings/Ethereum/dev/erc-20-token/contracts/ERC20Burnable.sol",
  "compiler": {
    "name": "solc",
    "version": "0.5.16+commit.9c3226ce.Emscripten.clang"
  },
  "schemaVersion": "3.3.4",
  "updatedAt": "2021-03-03T21:25:27.988Z",
  "devdoc": {
    "methods": {}
  },
  "userdoc": {
    "methods": {}
  }
}