{
  "contractName": "MinterRole",
  "abi": [
    {
      "inputs": [],
      "payable": false,
      "stateMutability": "nonpayable",
      "type": "constructor"
    },
    {
      "anonymous": false,
      "inputs": [
        {
          "indexed": true,
          "internalType": "address",
          "name": "account",
          "type": "address"
        }
      ],
      "name": "MinterAdded",
      "type": "event"
    },
    {
      "anonymous": false,
      "inputs": [
        {
          "indexed": true,
          "internalType": "address",
          "name": "account",
          "type": "address"
        }
      ],
      "name": "MinterRemoved",
      "type": "event"
    },
    {
      "constant": true,
      "inputs": [
        {
          "internalType": "address",
          "name": "account",
          "type": "address"
        }
      ],
      "name": "isMinter",
      "outputs": [
        {
          "internalType": "bool",
          "name": "",
          "type": "bool"
        }
      ],
      "payable": false,
      "stateMutability": "view",
      "type": "function"
    }
  ],
  "bytecode": "0x608060405234801561001057600080fd5b506100336100256001600160e01b0361003816565b6001600160e01b0361003c16565b61017c565b3390565b61005481600061008b60201b6100e91790919060201c565b6040516001600160a01b038216907f6ae172837ea30b801fbfcdd4108aa1d5bf8ff775444fd70256b44e6bf3dfc3f690600090a250565b61009e82826001600160e01b0361011516565b156100f0576040805162461bcd60e51b815260206004820152601f60248201527f526f6c65733a206163636f756e7420616c72656164792068617320726f6c6500604482015290519081900360640190fd5b6001600160a01b0316600090815260209190915260409020805460ff19166001179055565b60006001600160a01b03821661015c5760405162461bcd60e51b815260040180806020018281038252602281526020018061034c6022913960400191505060405180910390fd5b506001600160a01b03166000908152602091909152604090205460ff1690565b6101c18061018b6000396000f3fe608060405234801561001057600080fd5b506004361061002b5760003560e01c8063aa271e1a14610030575b600080fd5b6100566004803603602081101561004657600080fd5b50356001600160a01b031661006a565b604080519115158252519081900360200190f35b600061007c818363ffffffff61008216565b92915050565b60006001600160a01b0382166100c95760405162461bcd60e51b815260040180806020018281038252602281526020018061016b6022913960400191505060405180910390fd5b506001600160a01b03166000908152602091909152604090205460ff1690565b6100f38282610082565b15610145576040805162461bcd60e51b815260206004820152601f60248201527f526f6c65733a206163636f756e7420616c72656164792068617320726f6c6500604482015290519081900360640190fd5b6001600160a01b0316600090815260209190915260409020805460ff1916600117905556fe526f6c65733a206163636f756e7420697320746865207a65726f2061646472657373a265627a7a72315820d28e469a4fd64977ea8af86cb1cb459759f1c06aa118b14e775cc1b884a50f2b64736f6c63430005100032526f6c65733a206163636f756e7420697320746865207a65726f2061646472657373",
  "source": "//SPDX-License-Identifier: UNLICENSED\r\npragma solidity ^0.5.16;\r\n\r\nimport \"./interfaces/libraries/Context.sol\";\r\nimport \"./interfaces/libraries/Roles.sol\";\r\n\r\ncontract MinterRole is Context {\r\n  using Roles for Roles.Role;\r\n\r\n  event MinterAdded(address indexed account);\r\n  event MinterRemoved(address indexed account);\r\n\r\n  Roles.Role private _minters;\r\n\r\n\r\n  function _addMinter(address account) internal {\r\n    _minters.add(account);\r\n    emit MinterAdded(account);\r\n  }\r\n\r\n  constructor() public {\r\n    _addMinter(_msgSender());\r\n  }\r\n\r\n  function isMinter(address account) public view returns(bool) {\r\n    return _minters.has(account);\r\n  }\r\n\r\n  modifier onlyMinter() {\r\n    require(isMinter(_msgSender()), \"MinterRole: caller doesn't have minter role\");\r\n    _;\r\n  }\r\n\r\n\r\n}\r\n",
  "sourcePath": "C:/Users/Alexey/Desktop/calcscout/Trainings/Ethereum/dev/erc-20-token/contracts/MinterRole.sol",
  "compiler": {
    "name": "solc",
    "version": "0.5.16+commit.9c3226ce.Emscripten.clang"
  },
  "schemaVersion": "3.3.4",
  "updatedAt": "2021-03-03T22:04:07.323Z",
  "devdoc": {
    "methods": {}
  },
  "userdoc": {
    "methods": {}
  }
}